{
  "contractName": "DB",
  "abi": [
    {
      "constant": false,
      "inputs": [
        {
          "name": "recordFieldName",
          "type": "bytes32"
        }
      ],
      "name": "deleteBoolValue",
      "outputs": [],
      "payable": false,
      "stateMutability": "nonpayable",
      "type": "function"
    },
    {
      "constant": true,
      "inputs": [
        {
          "name": "recordFieldName",
          "type": "bytes32"
        }
      ],
      "name": "getBytes32Value",
      "outputs": [
        {
          "name": "",
          "type": "bytes32"
        }
      ],
      "payable": false,
      "stateMutability": "view",
      "type": "function"
    },
    {
      "constant": false,
      "inputs": [
        {
          "name": "recordFieldName",
          "type": "bytes32"
        }
      ],
      "name": "deleteAddressValue",
      "outputs": [],
      "payable": false,
      "stateMutability": "nonpayable",
      "type": "function"
    },
    {
      "constant": false,
      "inputs": [
        {
          "name": "addresses",
          "type": "address[]"
        }
      ],
      "name": "removePermittedContracts",
      "outputs": [],
      "payable": false,
      "stateMutability": "nonpayable",
      "type": "function"
    },
    {
      "constant": false,
      "inputs": [
        {
          "name": "recordFieldName",
          "type": "bytes32"
        },
        {
          "name": "value",
          "type": "uint8"
        }
      ],
      "name": "setUInt8Value",
      "outputs": [],
      "payable": false,
      "stateMutability": "nonpayable",
      "type": "function"
    },
    {
      "constant": false,
      "inputs": [
        {
          "name": "recordFieldName",
          "type": "bytes32"
        }
      ],
      "name": "deleteBytesValue",
      "outputs": [],
      "payable": false,
      "stateMutability": "nonpayable",
      "type": "function"
    },
    {
      "constant": false,
      "inputs": [
        {
          "name": "recordFieldName",
          "type": "bytes32"
        }
      ],
      "name": "deleteBytes32Value",
      "outputs": [],
      "payable": false,
      "stateMutability": "nonpayable",
      "type": "function"
    },
    {
      "constant": false,
      "inputs": [
        {
          "name": "recordFieldName",
          "type": "bytes32"
        },
        {
          "name": "value",
          "type": "bytes32"
        }
      ],
      "name": "setBytes32Value",
      "outputs": [],
      "payable": false,
      "stateMutability": "nonpayable",
      "type": "function"
    },
    {
      "constant": true,
      "inputs": [],
      "name": "permittedContractsCount",
      "outputs": [
        {
          "name": "count",
          "type": "uint256"
        }
      ],
      "payable": false,
      "stateMutability": "view",
      "type": "function"
    },
    {
      "constant": true,
      "inputs": [],
      "name": "getPermittedContracts",
      "outputs": [
        {
          "name": "addresses",
          "type": "address[]"
        }
      ],
      "payable": false,
      "stateMutability": "view",
      "type": "function"
    },
    {
      "constant": false,
      "inputs": [
        {
          "name": "recordFieldName",
          "type": "bytes32"
        },
        {
          "name": "value",
          "type": "uint256"
        }
      ],
      "name": "setUIntValue",
      "outputs": [],
      "payable": false,
      "stateMutability": "nonpayable",
      "type": "function"
    },
    {
      "constant": false,
      "inputs": [
        {
          "name": "contractAddress",
          "type": "address"
        }
      ],
      "name": "addPermittedContract",
      "outputs": [],
      "payable": false,
      "stateMutability": "nonpayable",
      "type": "function"
    },
    {
      "constant": true,
      "inputs": [
        {
          "name": "recordFieldName",
          "type": "bytes32"
        }
      ],
      "name": "getBytesValue",
      "outputs": [
        {
          "name": "",
          "type": "bytes"
        }
      ],
      "payable": false,
      "stateMutability": "view",
      "type": "function"
    },
    {
      "constant": true,
      "inputs": [
        {
          "name": "recordFieldName",
          "type": "bytes32"
        }
      ],
      "name": "getAddressValue",
      "outputs": [
        {
          "name": "",
          "type": "address"
        }
      ],
      "payable": false,
      "stateMutability": "view",
      "type": "function"
    },
    {
      "constant": true,
      "inputs": [
        {
          "name": "recordFieldName",
          "type": "bytes32"
        },
        {
          "name": "uintType",
          "type": "uint8"
        }
      ],
      "name": "getCorrespondingIntegerValue",
      "outputs": [
        {
          "name": "",
          "type": "uint256"
        }
      ],
      "payable": false,
      "stateMutability": "view",
      "type": "function"
    },
    {
      "constant": false,
      "inputs": [
        {
          "name": "recordFieldName",
          "type": "bytes32"
        },
        {
          "name": "value",
          "type": "bool"
        }
      ],
      "name": "setBoolValue",
      "outputs": [],
      "payable": false,
      "stateMutability": "nonpayable",
      "type": "function"
    },
    {
      "constant": false,
      "inputs": [
        {
          "name": "recordFieldName",
          "type": "bytes32"
        },
        {
          "name": "value",
          "type": "address"
        }
      ],
      "name": "setAddressValue",
      "outputs": [],
      "payable": false,
      "stateMutability": "nonpayable",
      "type": "function"
    },
    {
      "constant": false,
      "inputs": [
        {
          "name": "recordFieldName",
          "type": "bytes32"
        },
        {
          "name": "value",
          "type": "uint256"
        }
      ],
      "name": "subUIntValue",
      "outputs": [],
      "payable": false,
      "stateMutability": "nonpayable",
      "type": "function"
    },
    {
      "constant": true,
      "inputs": [
        {
          "name": "recordFieldTypes",
          "type": "uint8[]"
        }
      ],
      "name": "getCountOfIntegerTypes",
      "outputs": [
        {
          "name": "count",
          "type": "uint256"
        }
      ],
      "payable": false,
      "stateMutability": "pure",
      "type": "function"
    },
    {
      "constant": true,
      "inputs": [
        {
          "name": "",
          "type": "uint256"
        }
      ],
      "name": "permittedContractsAddresses",
      "outputs": [
        {
          "name": "",
          "type": "address"
        }
      ],
      "payable": false,
      "stateMutability": "view",
      "type": "function"
    },
    {
      "constant": true,
      "inputs": [
        {
          "name": "recordFieldName",
          "type": "bytes32"
        }
      ],
      "name": "getUInt8Value",
      "outputs": [
        {
          "name": "",
          "type": "uint8"
        }
      ],
      "payable": false,
      "stateMutability": "view",
      "type": "function"
    },
    {
      "constant": false,
      "inputs": [
        {
          "name": "recordFieldName",
          "type": "bytes32"
        }
      ],
      "name": "deleteIntValue",
      "outputs": [],
      "payable": false,
      "stateMutability": "nonpayable",
      "type": "function"
    },
    {
      "constant": true,
      "inputs": [
        {
          "name": "recordFieldNames",
          "type": "bytes32[]"
        },
        {
          "name": "recordFieldTypes",
          "type": "uint8[]"
        }
      ],
      "name": "getObjectData",
      "outputs": [
        {
          "name": "items",
          "type": "uint256[]"
        },
        {
          "name": "strings",
          "type": "string"
        }
      ],
      "payable": false,
      "stateMutability": "view",
      "type": "function"
    },
    {
      "constant": false,
      "inputs": [],
      "name": "destroy",
      "outputs": [],
      "payable": false,
      "stateMutability": "nonpayable",
      "type": "function"
    },
    {
      "constant": false,
      "inputs": [
        {
          "name": "recordFieldName",
          "type": "bytes32"
        }
      ],
      "name": "deleteUInt8Value",
      "outputs": [],
      "payable": false,
      "stateMutability": "nonpayable",
      "type": "function"
    },
    {
      "constant": true,
      "inputs": [],
      "name": "owner",
      "outputs": [
        {
          "name": "",
          "type": "address"
        }
      ],
      "payable": false,
      "stateMutability": "view",
      "type": "function"
    },
    {
      "constant": true,
      "inputs": [
        {
          "name": "recordFieldName",
          "type": "bytes32"
        }
      ],
      "name": "getBoolValue",
      "outputs": [
        {
          "name": "",
          "type": "bool"
        }
      ],
      "payable": false,
      "stateMutability": "view",
      "type": "function"
    },
    {
      "constant": true,
      "inputs": [
        {
          "name": "recordFieldName",
          "type": "bytes32"
        }
      ],
      "name": "getIntValue",
      "outputs": [
        {
          "name": "",
          "type": "int256"
        }
      ],
      "payable": false,
      "stateMutability": "view",
      "type": "function"
    },
    {
      "constant": false,
      "inputs": [
        {
          "name": "recordFieldName",
          "type": "bytes32"
        }
      ],
      "name": "deleteUIntValue",
      "outputs": [],
      "payable": false,
      "stateMutability": "nonpayable",
      "type": "function"
    },
    {
      "constant": true,
      "inputs": [
        {
          "name": "",
          "type": "address"
        }
      ],
      "name": "permissionStatusForContract",
      "outputs": [
        {
          "name": "",
          "type": "bool"
        }
      ],
      "payable": false,
      "stateMutability": "view",
      "type": "function"
    },
    {
      "constant": true,
      "inputs": [
        {
          "name": "recordFieldName",
          "type": "bytes32"
        }
      ],
      "name": "getStringValue",
      "outputs": [
        {
          "name": "",
          "type": "string"
        }
      ],
      "payable": false,
      "stateMutability": "view",
      "type": "function"
    },
    {
      "constant": false,
      "inputs": [
        {
          "name": "recordFieldName",
          "type": "bytes32"
        },
        {
          "name": "value",
          "type": "int256"
        }
      ],
      "name": "setIntValue",
      "outputs": [],
      "payable": false,
      "stateMutability": "nonpayable",
      "type": "function"
    },
    {
      "constant": false,
      "inputs": [
        {
          "name": "addresses",
          "type": "address"
        }
      ],
      "name": "removePermittedContract",
      "outputs": [],
      "payable": false,
      "stateMutability": "nonpayable",
      "type": "function"
    },
    {
      "constant": false,
      "inputs": [
        {
          "name": "recordFieldName",
          "type": "bytes32"
        }
      ],
      "name": "deleteStringValue",
      "outputs": [],
      "payable": false,
      "stateMutability": "nonpayable",
      "type": "function"
    },
    {
      "constant": true,
      "inputs": [
        {
          "name": "recordFieldName",
          "type": "bytes32"
        }
      ],
      "name": "getUIntValue",
      "outputs": [
        {
          "name": "",
          "type": "uint256"
        }
      ],
      "payable": false,
      "stateMutability": "view",
      "type": "function"
    },
    {
      "constant": false,
      "inputs": [
        {
          "name": "recordFieldName",
          "type": "bytes32"
        },
        {
          "name": "value",
          "type": "uint256"
        }
      ],
      "name": "addUIntValue",
      "outputs": [],
      "payable": false,
      "stateMutability": "nonpayable",
      "type": "function"
    },
    {
      "constant": false,
      "inputs": [
        {
          "name": "recordFieldName",
          "type": "bytes32"
        },
        {
          "name": "value",
          "type": "bytes"
        }
      ],
      "name": "setBytesValue",
      "outputs": [],
      "payable": false,
      "stateMutability": "nonpayable",
      "type": "function"
    },
    {
      "constant": false,
      "inputs": [
        {
          "name": "addresses",
          "type": "address[]"
        }
      ],
      "name": "addPermittedContracts",
      "outputs": [],
      "payable": false,
      "stateMutability": "nonpayable",
      "type": "function"
    },
    {
      "constant": false,
      "inputs": [
        {
          "name": "newOwner",
          "type": "address"
        }
      ],
      "name": "transferOwnership",
      "outputs": [],
      "payable": false,
      "stateMutability": "nonpayable",
      "type": "function"
    },
    {
      "constant": false,
      "inputs": [
        {
          "name": "_recipient",
          "type": "address"
        }
      ],
      "name": "destroyAndSend",
      "outputs": [],
      "payable": false,
      "stateMutability": "nonpayable",
      "type": "function"
    },
    {
      "constant": false,
      "inputs": [
        {
          "name": "recordFieldName",
          "type": "bytes32"
        },
        {
          "name": "value",
          "type": "string"
        }
      ],
      "name": "setStringValue",
      "outputs": [],
      "payable": false,
      "stateMutability": "nonpayable",
      "type": "function"
    },
    {
      "constant": true,
      "inputs": [
        {
          "name": "logicEntry",
          "type": "bool"
        }
      ],
      "name": "boolToUInt",
      "outputs": [
        {
          "name": "",
          "type": "uint256"
        }
      ],
      "payable": false,
      "stateMutability": "pure",
      "type": "function"
    },
    {
      "inputs": [],
      "payable": false,
      "stateMutability": "nonpayable",
      "type": "constructor"
    }
  ],
  "bytecode": "0x6060604052341561000f57600080fd5b336000806101000a81548173ffffffffffffffffffffffffffffffffffffffff021916908373ffffffffffffffffffffffffffffffffffffffff1602179055506130378061005e6000396000f300606060405260043610610203576000357c0100000000000000000000000000000000000000000000000000000000900463ffffffff168062a35aa214610208578063025ec81a1461022f578063043106c0146102725780630489fa70146102995780630bd85158146102c75780630c55d925146102fa578063124f24181461032157806325cf512d1461034857806326df61f61461037c5780633138ee5c146103a55780633562fd201461040f5780633836fe6e1461043f57806344bfa56e146104785780634c77e5ba14610518578063506d7d001461057f57806352d2d83d146105c65780635a2bf25a146105f85780636aebbbd91461063e5780636d38156f1461066e57806373fb35ee146106dc5780637a0e03ec1461073f5780638267a9ee1461078057806382914e5d146107a757806383197ef0146108aa57806384d7c99d146108bf5780638da5cb5b146108e65780638ffa96901461093b5780639007127b1461097a57806393fe4248146109b55780639420e58d146109dc578063a209a29c14610a2d578063a77aa49e14610acd578063a98ad19914610afd578063ba69fcaa14610b36578063bdc963d814610b5d578063c8d1c01714610b98578063c9a52d2c14610bc8578063dc02511e14610c03578063f2fde38b14610c31578063f5074f4114610c6a578063f586606614610ca3578063ffbd400b14610cde575b600080fd5b341561021357600080fd5b61022d600480803560001916906020019091905050610d17565b005b341561023a57600080fd5b610254600480803560001916906020019091905050610df4565b60405180826000191660001916815260200191505060405180910390f35b341561027d57600080fd5b610297600480803560001916906020019091905050610e19565b005b34156102a457600080fd5b6102c560048080359060200190820180359060200191909192905050610f09565b005b34156102d257600080fd5b6102f860048080356000191690602001909190803560ff1690602001909190505061100a565b005b341561030557600080fd5b61031f6004808035600019169060200190919050506110f1565b005b341561032c57600080fd5b6103466004808035600019169060200190919050506111ca565b005b341561035357600080fd5b61037a6004808035600019169060200190919080356000191690602001909190505061129b565b005b341561038757600080fd5b61038f611372565b6040518082815260200191505060405180910390f35b34156103b057600080fd5b6103b8611430565b6040518080602001828103825283818151815260200191508051906020019060200280838360005b838110156103fb5780820151818401526020810190506103e0565b505050509050019250505060405180910390f35b341561041a57600080fd5b61043d60048080356000191690602001909190803590602001909190505061159a565b005b341561044a57600080fd5b610476600480803573ffffffffffffffffffffffffffffffffffffffff1690602001909190505061166d565b005b341561048357600080fd5b61049d600480803560001916906020019091905050611786565b6040518080602001828103825283818151815260200191508051906020019080838360005b838110156104dd5780820151818401526020810190506104c2565b50505050905090810190601f16801561050a5780820380516001836020036101000a031916815260200191505b509250505060405180910390f35b341561052357600080fd5b61053d600480803560001916906020019091905050611849565b604051808273ffffffffffffffffffffffffffffffffffffffff1673ffffffffffffffffffffffffffffffffffffffff16815260200191505060405180910390f35b341561058a57600080fd5b6105b060048080356000191690602001909190803560ff1690602001909190505061188e565b6040518082815260200191505060405180910390f35b34156105d157600080fd5b6105f66004808035600019169060200190919080351515906020019091905050611953565b005b341561060357600080fd5b61063c60048080356000191690602001909190803573ffffffffffffffffffffffffffffffffffffffff16906020019091905050611a39565b005b341561064957600080fd5b61066c600480803560001916906020019091908035906020019091905050611b46565b005b341561067957600080fd5b6106c6600480803590602001908201803590602001908080602002602001604051908101604052809392919081815260200183836020028082843782019150505050505091905050611c3d565b6040518082815260200191505060405180910390f35b34156106e757600080fd5b6106fd6004808035906020019091905050611c93565b604051808273ffffffffffffffffffffffffffffffffffffffff1673ffffffffffffffffffffffffffffffffffffffff16815260200191505060405180910390f35b341561074a57600080fd5b610764600480803560001916906020019091905050611cd2565b604051808260ff1660ff16815260200191505060405180910390f35b341561078b57600080fd5b6107a5600480803560001916906020019091905050611d04565b005b34156107b257600080fd5b6107e7600480803590602001908201803590602001919091929080359060200190820180359060200191909192905050611dd5565b604051808060200180602001838103835285818151815260200191508051906020019060200280838360005b8381101561082e578082015181840152602081019050610813565b50505050905001838103825284818151815260200191508051906020019080838360005b8381101561086d578082015181840152602081019050610852565b50505050905090810190601f16801561089a5780820380516001836020036101000a031916815260200191505b5094505050505060405180910390f35b34156108b557600080fd5b6108bd612034565b005b34156108ca57600080fd5b6108e46004808035600019169060200190919050506120c9565b005b34156108f157600080fd5b6108f96121a6565b604051808273ffffffffffffffffffffffffffffffffffffffff1673ffffffffffffffffffffffffffffffffffffffff16815260200191505060405180910390f35b341561094657600080fd5b6109606004808035600019169060200190919050506121cb565b604051808215151515815260200191505060405180910390f35b341561098557600080fd5b61099f6004808035600019169060200190919050506121fd565b6040518082815260200191505060405180910390f35b34156109c057600080fd5b6109da600480803560001916906020019091905050612222565b005b34156109e757600080fd5b610a13600480803573ffffffffffffffffffffffffffffffffffffffff169060200190919050506122f3565b604051808215151515815260200191505060405180910390f35b3415610a3857600080fd5b610a52600480803560001916906020019091905050612313565b6040518080602001828103825283818151815260200191508051906020019080838360005b83811015610a92578082015181840152602081019050610a77565b50505050905090810190601f168015610abf5780820380516001836020036101000a031916815260200191505b509250505060405180910390f35b3415610ad857600080fd5b610afb6004808035600019169060200190919080359060200190919050506123d6565b005b3415610b0857600080fd5b610b34600480803573ffffffffffffffffffffffffffffffffffffffff169060200190919050506124a9565b005b3415610b4157600080fd5b610b5b60048080356000191690602001909190505061255f565b005b3415610b6857600080fd5b610b82600480803560001916906020019091905050612638565b6040518082815260200191505060405180910390f35b3415610ba357600080fd5b610bc660048080356000191690602001909190803590602001909190505061265d565b005b3415610bd357600080fd5b610c016004808035600019169060200190919080359060200190820180359060200191909192905050612754565b005b3415610c0e57600080fd5b610c2f60048080359060200190820180359060200191909192905050612833565b005b3415610c3c57600080fd5b610c68600480803573ffffffffffffffffffffffffffffffffffffffff169060200190919050506129c1565b005b3415610c7557600080fd5b610ca1600480803573ffffffffffffffffffffffffffffffffffffffff16906020019091905050612a96565b005b3415610cae57600080fd5b610cdc6004808035600019169060200190919080359060200190820180359060200191909192905050612b0a565b005b3415610ce957600080fd5b610d0160048080351515906020019091905050612c77565b6040518082815260200191505060405180910390f35b600260003373ffffffffffffffffffffffffffffffffffffffff1673ffffffffffffffffffffffffffffffffffffffff16815260200190815260200160002060009054906101000a900460ff1680610dbb57506000809054906101000a900473ffffffffffffffffffffffffffffffffffffffff1673ffffffffffffffffffffffffffffffffffffffff163373ffffffffffffffffffffffffffffffffffffffff16145b1515610dc657600080fd5b60046000826000191660001916815260200190815260200160002060006101000a81549060ff021916905550565b6000600660008360001916600019168152602001908152602001600020549050919050565b600260003373ffffffffffffffffffffffffffffffffffffffff1673ffffffffffffffffffffffffffffffffffffffff16815260200190815260200160002060009054906101000a900460ff1680610ebd57506000809054906101000a900473ffffffffffffffffffffffffffffffffffffffff1673ffffffffffffffffffffffffffffffffffffffff163373ffffffffffffffffffffffffffffffffffffffff16145b1515610ec857600080fd5b60036000826000191660001916815260200190815260200160002060006101000a81549073ffffffffffffffffffffffffffffffffffffffff021916905550565b60008060009054906101000a900473ffffffffffffffffffffffffffffffffffffffff1673ffffffffffffffffffffffffffffffffffffffff163373ffffffffffffffffffffffffffffffffffffffff16141515610f6657600080fd5b600090505b82829050811015611005576000600260008585858181101515610f8a57fe5b9050602002013573ffffffffffffffffffffffffffffffffffffffff1673ffffffffffffffffffffffffffffffffffffffff1673ffffffffffffffffffffffffffffffffffffffff16815260200190815260200160002060006101000a81548160ff0219169083151502179055508080600101915050610f6b565b505050565b600260003373ffffffffffffffffffffffffffffffffffffffff1673ffffffffffffffffffffffffffffffffffffffff16815260200190815260200160002060009054906101000a900460ff16806110ae57506000809054906101000a900473ffffffffffffffffffffffffffffffffffffffff1673ffffffffffffffffffffffffffffffffffffffff163373ffffffffffffffffffffffffffffffffffffffff16145b15156110b957600080fd5b8060096000846000191660001916815260200190815260200160002060006101000a81548160ff021916908360ff1602179055505050565b600260003373ffffffffffffffffffffffffffffffffffffffff1673ffffffffffffffffffffffffffffffffffffffff16815260200190815260200160002060009054906101000a900460ff168061119557506000809054906101000a900473ffffffffffffffffffffffffffffffffffffffff1673ffffffffffffffffffffffffffffffffffffffff163373ffffffffffffffffffffffffffffffffffffffff16145b15156111a057600080fd5b60056000826000191660001916815260200190815260200160002060006111c79190612dc0565b50565b600260003373ffffffffffffffffffffffffffffffffffffffff1673ffffffffffffffffffffffffffffffffffffffff16815260200190815260200160002060009054906101000a900460ff168061126e57506000809054906101000a900473ffffffffffffffffffffffffffffffffffffffff1673ffffffffffffffffffffffffffffffffffffffff163373ffffffffffffffffffffffffffffffffffffffff16145b151561127957600080fd5b6006600082600019166000191681526020019081526020016000206000905550565b600260003373ffffffffffffffffffffffffffffffffffffffff1673ffffffffffffffffffffffffffffffffffffffff16815260200190815260200160002060009054906101000a900460ff168061133f57506000809054906101000a900473ffffffffffffffffffffffffffffffffffffffff1673ffffffffffffffffffffffffffffffffffffffff163373ffffffffffffffffffffffffffffffffffffffff16145b151561134a57600080fd5b8060066000846000191660001916815260200190815260200160002081600019169055505050565b600080600090505b600180549050811015611429576002600060018381548110151561139a57fe5b906000526020600020900160009054906101000a900473ffffffffffffffffffffffffffffffffffffffff1673ffffffffffffffffffffffffffffffffffffffff1673ffffffffffffffffffffffffffffffffffffffff16815260200190815260200160002060009054906101000a900460ff161561141c5781806001019250505b808060010191505061137a565b8191505090565b611438612e08565b6000611442611372565b60405180591061144f5750595b90808252806020026020018201604052509150600090505b600180549050811015611593576002600060018381548110151561148757fe5b906000526020600020900160009054906101000a900473ffffffffffffffffffffffffffffffffffffffff1673ffffffffffffffffffffffffffffffffffffffff1673ffffffffffffffffffffffffffffffffffffffff16815260200190815260200160002060009054906101000a900460ff16156115865760018181548110151561150f57fe5b906000526020600020900160009054906101000a900473ffffffffffffffffffffffffffffffffffffffff16828281518110151561154957fe5b9060200190602002019073ffffffffffffffffffffffffffffffffffffffff16908173ffffffffffffffffffffffffffffffffffffffff16815250505b8080600101915050611467565b8191505090565b600260003373ffffffffffffffffffffffffffffffffffffffff1673ffffffffffffffffffffffffffffffffffffffff16815260200190815260200160002060009054906101000a900460ff168061163e57506000809054906101000a900473ffffffffffffffffffffffffffffffffffffffff1673ffffffffffffffffffffffffffffffffffffffff163373ffffffffffffffffffffffffffffffffffffffff16145b151561164957600080fd5b80600860008460001916600019168152602001908152602001600020819055505050565b6000809054906101000a900473ffffffffffffffffffffffffffffffffffffffff1673ffffffffffffffffffffffffffffffffffffffff163373ffffffffffffffffffffffffffffffffffffffff161415156116c857600080fd5b6001600260008373ffffffffffffffffffffffffffffffffffffffff1673ffffffffffffffffffffffffffffffffffffffff16815260200190815260200160002060006101000a81548160ff021916908315150217905550600180548060010182816117349190612e1c565b9160005260206000209001600083909190916101000a81548173ffffffffffffffffffffffffffffffffffffffff021916908373ffffffffffffffffffffffffffffffffffffffff1602179055505050565b61178e612e48565b6005600083600019166000191681526020019081526020016000208054600181600116156101000203166002900480601f01602080910402602001604051908101604052809291908181526020018280546001816001161561010002031660029004801561183d5780601f106118125761010080835404028352916020019161183d565b820191906000526020600020905b81548152906001019060200180831161182057829003601f168201915b50505050509050919050565b600060036000836000191660001916815260200190815260200160002060009054906101000a900473ffffffffffffffffffffffffffffffffffffffff169050919050565b600060018260ff1614156118b4576118ad6118a8846121cb565b612c77565b905061194d565b60028260ff1614156118d3576118c983611cd2565b60ff16905061194d565b60038260ff1614156118ef576118e883612638565b905061194d565b60048260ff1614156119285761190483611849565b73ffffffffffffffffffffffffffffffffffffffff1660010260019004905061194d565b60058260ff1614156119485761193d83610df4565b60019004905061194d565b600090505b92915050565b600260003373ffffffffffffffffffffffffffffffffffffffff1673ffffffffffffffffffffffffffffffffffffffff16815260200190815260200160002060009054906101000a900460ff16806119f757506000809054906101000a900473ffffffffffffffffffffffffffffffffffffffff1673ffffffffffffffffffffffffffffffffffffffff163373ffffffffffffffffffffffffffffffffffffffff16145b1515611a0257600080fd5b8060046000846000191660001916815260200190815260200160002060006101000a81548160ff0219169083151502179055505050565b600260003373ffffffffffffffffffffffffffffffffffffffff1673ffffffffffffffffffffffffffffffffffffffff16815260200190815260200160002060009054906101000a900460ff1680611add57506000809054906101000a900473ffffffffffffffffffffffffffffffffffffffff1673ffffffffffffffffffffffffffffffffffffffff163373ffffffffffffffffffffffffffffffffffffffff16145b1515611ae857600080fd5b8060036000846000191660001916815260200190815260200160002060006101000a81548173ffffffffffffffffffffffffffffffffffffffff021916908373ffffffffffffffffffffffffffffffffffffffff1602179055505050565b600260003373ffffffffffffffffffffffffffffffffffffffff1673ffffffffffffffffffffffffffffffffffffffff16815260200190815260200160002060009054906101000a900460ff1680611bea57506000809054906101000a900473ffffffffffffffffffffffffffffffffffffffff1673ffffffffffffffffffffffffffffffffffffffff163373ffffffffffffffffffffffffffffffffffffffff16145b1515611bf557600080fd5b611c1a6008600084600019166000191681526020019081526020016000205482612c92565b600860008460001916600019168152602001908152602001600020819055505050565b60008060009150600090505b8251811015611c8a5760078382815181101515611c6257fe5b9060200190602002015160ff16141515611c7d576001820191505b8080600101915050611c49565b81915050919050565b600181815481101515611ca257fe5b90600052602060002090016000915054906101000a900473ffffffffffffffffffffffffffffffffffffffff1681565b600060096000836000191660001916815260200190815260200160002060009054906101000a900460ff169050919050565b600260003373ffffffffffffffffffffffffffffffffffffffff1673ffffffffffffffffffffffffffffffffffffffff16815260200190815260200160002060009054906101000a900460ff1680611da857506000809054906101000a900473ffffffffffffffffffffffffffffffffffffffff1673ffffffffffffffffffffffffffffffffffffffff163373ffffffffffffffffffffffffffffffffffffffff16145b1515611db357600080fd5b6007600082600019166000191681526020019081526020016000206000905550565b611ddd612e5c565b611de5612e70565b600080600080600080611e268a8a80806020026020016040519081016040528093929190818152602001838360200280828437820191505050505050611c3d565b9550898990508c8c9050811515611e3957fe5b049450858502604051805910611e4c5750595b90808252806020026020018201604052509750600092505b8483101561201f57600091505b89899050821015611fb857818a8a9050840201905060078a8a848181101515611e9657fe5b9050602002013560ff1660ff161415611f4d57611eec611ed5611ed08e8e858181101515611ec057fe5b9050602002013560001916612313565b612cab565b611ede89612cab565b612cd990919063ffffffff16565b9650611f46611f2f6040805190810160405280601181526020017f3636362d2d4554482d5655452d2d363636000000000000000000000000000000815250612cab565b611f3889612cab565b612cd990919063ffffffff16565b9650611fab565b611f868c8c838181101515611f5e57fe5b90506020020135600019168b8b858181101515611f7757fe5b9050602002013560ff1661188e565b8885815181101515611f9457fe5b906020019060200201818152505083806001019450505b8180600101925050611e71565b612010611ff96040805190810160405280601681526020017f3636362d2d4554482d5655452d4c4953542d2d36363600000000000000000000815250612cab565b61200289612cab565b612cd990919063ffffffff16565b96508280600101935050611e64565b87879750975050505050505094509492505050565b6000809054906101000a900473ffffffffffffffffffffffffffffffffffffffff1673ffffffffffffffffffffffffffffffffffffffff163373ffffffffffffffffffffffffffffffffffffffff1614151561208f57600080fd5b6000809054906101000a900473ffffffffffffffffffffffffffffffffffffffff1673ffffffffffffffffffffffffffffffffffffffff16ff5b600260003373ffffffffffffffffffffffffffffffffffffffff1673ffffffffffffffffffffffffffffffffffffffff16815260200190815260200160002060009054906101000a900460ff168061216d57506000809054906101000a900473ffffffffffffffffffffffffffffffffffffffff1673ffffffffffffffffffffffffffffffffffffffff163373ffffffffffffffffffffffffffffffffffffffff16145b151561217857600080fd5b60096000826000191660001916815260200190815260200160002060006101000a81549060ff021916905550565b6000809054906101000a900473ffffffffffffffffffffffffffffffffffffffff1681565b600060046000836000191660001916815260200190815260200160002060009054906101000a900460ff169050919050565b6000600760008360001916600019168152602001908152602001600020549050919050565b600260003373ffffffffffffffffffffffffffffffffffffffff1673ffffffffffffffffffffffffffffffffffffffff16815260200190815260200160002060009054906101000a900460ff16806122c657506000809054906101000a900473ffffffffffffffffffffffffffffffffffffffff1673ffffffffffffffffffffffffffffffffffffffff163373ffffffffffffffffffffffffffffffffffffffff16145b15156122d157600080fd5b6008600082600019166000191681526020019081526020016000206000905550565b60026020528060005260406000206000915054906101000a900460ff1681565b61231b612e70565b600a600083600019166000191681526020019081526020016000208054600181600116156101000203166002900480601f0160208091040260200160405190810160405280929190818152602001828054600181600116156101000203166002900480156123ca5780601f1061239f576101008083540402835291602001916123ca565b820191906000526020600020905b8154815290600101906020018083116123ad57829003601f168201915b50505050509050919050565b600260003373ffffffffffffffffffffffffffffffffffffffff1673ffffffffffffffffffffffffffffffffffffffff16815260200190815260200160002060009054906101000a900460ff168061247a57506000809054906101000a900473ffffffffffffffffffffffffffffffffffffffff1673ffffffffffffffffffffffffffffffffffffffff163373ffffffffffffffffffffffffffffffffffffffff16145b151561248557600080fd5b80600760008460001916600019168152602001908152602001600020819055505050565b6000809054906101000a900473ffffffffffffffffffffffffffffffffffffffff1673ffffffffffffffffffffffffffffffffffffffff163373ffffffffffffffffffffffffffffffffffffffff1614151561250457600080fd5b6000600260008373ffffffffffffffffffffffffffffffffffffffff1673ffffffffffffffffffffffffffffffffffffffff16815260200190815260200160002060006101000a81548160ff02191690831515021790555050565b600260003373ffffffffffffffffffffffffffffffffffffffff1673ffffffffffffffffffffffffffffffffffffffff16815260200190815260200160002060009054906101000a900460ff168061260357506000809054906101000a900473ffffffffffffffffffffffffffffffffffffffff1673ffffffffffffffffffffffffffffffffffffffff163373ffffffffffffffffffffffffffffffffffffffff16145b151561260e57600080fd5b600a6000826000191660001916815260200190815260200160002060006126359190612e84565b50565b6000600860008360001916600019168152602001908152602001600020549050919050565b600260003373ffffffffffffffffffffffffffffffffffffffff1673ffffffffffffffffffffffffffffffffffffffff16815260200190815260200160002060009054906101000a900460ff168061270157506000809054906101000a900473ffffffffffffffffffffffffffffffffffffffff1673ffffffffffffffffffffffffffffffffffffffff163373ffffffffffffffffffffffffffffffffffffffff16145b151561270c57600080fd5b6127316008600084600019166000191681526020019081526020016000205482612d57565b600860008460001916600019168152602001908152602001600020819055505050565b600260003373ffffffffffffffffffffffffffffffffffffffff1673ffffffffffffffffffffffffffffffffffffffff16815260200190815260200160002060009054906101000a900460ff16806127f857506000809054906101000a900473ffffffffffffffffffffffffffffffffffffffff1673ffffffffffffffffffffffffffffffffffffffff163373ffffffffffffffffffffffffffffffffffffffff16145b151561280357600080fd5b8181600560008660001916600019168152602001908152602001600020919061282d929190612ecc565b50505050565b60008060009054906101000a900473ffffffffffffffffffffffffffffffffffffffff1673ffffffffffffffffffffffffffffffffffffffff163373ffffffffffffffffffffffffffffffffffffffff1614151561289057600080fd5b600090505b828290508110156129bc5760016002600085858581811015156128b457fe5b9050602002013573ffffffffffffffffffffffffffffffffffffffff1673ffffffffffffffffffffffffffffffffffffffff1673ffffffffffffffffffffffffffffffffffffffff16815260200190815260200160002060006101000a81548160ff021916908315150217905550600180548060010182816129369190612e1c565b91600052602060002090016000858585818110151561295157fe5b9050602002013573ffffffffffffffffffffffffffffffffffffffff16909190916101000a81548173ffffffffffffffffffffffffffffffffffffffff021916908373ffffffffffffffffffffffffffffffffffffffff160217905550508080600101915050612895565b505050565b6000809054906101000a900473ffffffffffffffffffffffffffffffffffffffff1673ffffffffffffffffffffffffffffffffffffffff163373ffffffffffffffffffffffffffffffffffffffff16141515612a1c57600080fd5b600073ffffffffffffffffffffffffffffffffffffffff168173ffffffffffffffffffffffffffffffffffffffff16141515612a9357806000806101000a81548173ffffffffffffffffffffffffffffffffffffffff021916908373ffffffffffffffffffffffffffffffffffffffff1602179055505b50565b6000809054906101000a900473ffffffffffffffffffffffffffffffffffffffff1673ffffffffffffffffffffffffffffffffffffffff163373ffffffffffffffffffffffffffffffffffffffff16141515612af157600080fd5b8073ffffffffffffffffffffffffffffffffffffffff16ff5b600260003373ffffffffffffffffffffffffffffffffffffffff1673ffffffffffffffffffffffffffffffffffffffff16815260200190815260200160002060009054906101000a900460ff1680612bae57506000809054906101000a900473ffffffffffffffffffffffffffffffffffffffff1673ffffffffffffffffffffffffffffffffffffffff163373ffffffffffffffffffffffffffffffffffffffff16145b1515612bb957600080fd5b612c43612bf783838080601f016020809104026020016040519081016040528093929190818152602001838380828437820191505050505050612cab565b612c356040805190810160405280600181526020017f5e00000000000000000000000000000000000000000000000000000000000000815250612cab565b612cd990919063ffffffff16565b600a600085600019166000191681526020019081526020016000209080519060200190612c71929190612f4c565b50505050565b60008115612c885760019050612c8d565b600090505b919050565b6000828211151515612ca057fe5b818303905092915050565b612cb3612fcc565b600060208301905060408051908101604052808451815260200182815250915050919050565b612ce1612e70565b612ce9612e70565b60008360000151856000015101604051805910612d035750595b9080825280601f01601f19166020018201604052509150602082019050612d338186602001518760000151612d75565b612d4c8560000151820185602001518660000151612d75565b819250505092915050565b6000808284019050838110151515612d6b57fe5b8091505092915050565b60005b602082101515612d9d5782518452602084019350602083019250602082039150612d78565b6001826020036101000a0390508019835116818551168181178652505050505050565b50805460018160011615610100020316600290046000825580601f10612de65750612e05565b601f016020900490600052602060002090810190612e049190612fe6565b5b50565b602060405190810160405280600081525090565b815481835581811511612e4357818360005260206000209182019101612e429190612fe6565b5b505050565b602060405190810160405280600081525090565b602060405190810160405280600081525090565b602060405190810160405280600081525090565b50805460018160011615610100020316600290046000825580601f10612eaa5750612ec9565b601f016020900490600052602060002090810190612ec89190612fe6565b5b50565b828054600181600116156101000203166002900490600052602060002090601f016020900481019282601f10612f0d57803560ff1916838001178555612f3b565b82800160010185558215612f3b579182015b82811115612f3a578235825591602001919060010190612f1f565b5b509050612f489190612fe6565b5090565b828054600181600116156101000203166002900490600052602060002090601f016020900481019282601f10612f8d57805160ff1916838001178555612fbb565b82800160010185558215612fbb579182015b82811115612fba578251825591602001919060010190612f9f565b5b509050612fc89190612fe6565b5090565b604080519081016040528060008152602001600081525090565b61300891905b80821115613004576000816000905550600101612fec565b5090565b905600a165627a7a723058201d0515a3358fca03e16753614aedb607be3ec336d93a9b874a14e0c6926dc6720029",
  "source": "pragma solidity 0.4.18;\n\nimport './zeppelin/lifecycle/Destructible.sol';\nimport \"./zeppelin/math/SafeMath.sol\";\nimport \"./lib/arachnid/solidity-stringutils/strings.sol\";\n\ncontract DB is Destructible {\n  using strings for *;\n\n  address[] public permittedContractsAddresses;\n  mapping(address => bool) public permissionStatusForContract;\n\n  // DB implemented as bytes32 mappings\n  mapping(bytes32 => address) AddressDataStore;\n  mapping(bytes32 => bool) BoolDataStore;\n  mapping(bytes32 => bytes) BytesDataStore;\n  mapping(bytes32 => bytes32) Bytes32DataStore;\n  mapping(bytes32 => int) IntDataStore;\n  mapping(bytes32 => uint) UIntDataStore;\n  mapping(bytes32 => uint8) UInt8DataStore;\n  mapping(bytes32 => string) StringDataStore;\n\n  modifier onlyPermittedContractOrOwner {\n    require(permissionStatusForContract[msg.sender] || msg.sender == owner);\n    _;\n  }\n\n  function DB () public {\n\n  }\n\n  // AddressDataStore\n  function getAddressValue (bytes32 recordFieldName) public view returns (address) {\n    return AddressDataStore[recordFieldName];\n  }\n\n  function setAddressValue (bytes32 recordFieldName, address value) external\n    onlyPermittedContractOrOwner\n  {\n    AddressDataStore[recordFieldName] = value;\n  }\n\n  function deleteAddressValue (bytes32 recordFieldName) external\n    onlyPermittedContractOrOwner\n  {\n    delete AddressDataStore[recordFieldName];\n  }\n\n  // BoolDataStore\n  function getBoolValue (bytes32 recordFieldName) public view returns (bool) {\n    return BoolDataStore[recordFieldName];\n  }\n\n  function setBoolValue (bytes32 recordFieldName, bool value) external\n    onlyPermittedContractOrOwner\n  {\n    BoolDataStore[recordFieldName] = value;\n  }\n\n  function deleteBoolValue (bytes32 recordFieldName) external\n    onlyPermittedContractOrOwner\n  {\n    delete BoolDataStore[recordFieldName];\n  }\n\n  // BytesDataStore\n  function getBytesValue (bytes32 recordFieldName) public view returns (bytes) {\n    return BytesDataStore[recordFieldName];\n  }\n\n  function setBytesValue (bytes32 recordFieldName, bytes value) external\n    onlyPermittedContractOrOwner\n  {\n    BytesDataStore[recordFieldName] = value;\n  }\n\n  function deleteBytesValue (bytes32 recordFieldName) external\n    onlyPermittedContractOrOwner\n  {\n    delete BytesDataStore[recordFieldName];\n  }\n\n  // Bytes32DataStore\n  function getBytes32Value (bytes32 recordFieldName) public view returns (bytes32) {\n    return Bytes32DataStore[recordFieldName];\n  }\n\n  function setBytes32Value (bytes32 recordFieldName, bytes32 value) external\n    onlyPermittedContractOrOwner\n  {\n    Bytes32DataStore[recordFieldName] = value;\n  }\n\n  function deleteBytes32Value (bytes32 recordFieldName) external\n    onlyPermittedContractOrOwner\n  {\n    delete Bytes32DataStore[recordFieldName];\n  }\n\n  // IntDataStore\n  function getIntValue (bytes32 recordFieldName) public view returns (int) {\n    return IntDataStore[recordFieldName];\n  }\n\n  function setIntValue (bytes32 recordFieldName, int value) external\n    onlyPermittedContractOrOwner\n  {\n    IntDataStore[recordFieldName] = value;\n  }\n\n  function deleteIntValue (bytes32 recordFieldName) external\n    onlyPermittedContractOrOwner\n  {\n    delete IntDataStore[recordFieldName];\n  }\n\n  // UIntDataStore\n  function getUIntValue (bytes32 recordFieldName) public view returns (uint) {\n    return UIntDataStore[recordFieldName];\n  }\n\n  function setUIntValue (bytes32 recordFieldName, uint value) public\n    onlyPermittedContractOrOwner\n  {\n    UIntDataStore[recordFieldName] = value;\n  }\n\n  function addUIntValue (bytes32 recordFieldName, uint value) external\n    onlyPermittedContractOrOwner\n  {\n    UIntDataStore[recordFieldName] = SafeMath.add(UIntDataStore[recordFieldName], value);\n  }\n\n  function subUIntValue (bytes32 recordFieldName, uint value) external\n    onlyPermittedContractOrOwner\n  {\n    UIntDataStore[recordFieldName] = SafeMath.sub(UIntDataStore[recordFieldName], value);\n  }\n\n  function deleteUIntValue (bytes32 recordFieldName) external\n    onlyPermittedContractOrOwner\n  {\n    delete UIntDataStore[recordFieldName];\n  }\n\n  // UInt8DataStore\n  function getUInt8Value (bytes32 recordFieldName) public view returns (uint8){\n    return UInt8DataStore[recordFieldName];\n  }\n\n  function setUInt8Value (bytes32 recordFieldName, uint8 value) public\n    onlyPermittedContractOrOwner\n  {\n    UInt8DataStore[recordFieldName] = value;\n  }\n\n  function deleteUInt8Value (bytes32 recordFieldName) external\n    onlyPermittedContractOrOwner\n  {\n    delete UInt8DataStore[recordFieldName];\n  }\n\n  // StringDataStore\n  function getStringValue (bytes32 recordFieldName) public view returns (string) {\n    return StringDataStore[recordFieldName];\n  }\n\n  function setStringValue (bytes32 recordFieldName, string value) external\n    onlyPermittedContractOrOwner\n  {\n    StringDataStore[recordFieldName] = \"^\".toSlice().concat(value.toSlice());\n  }\n\n  function deleteStringValue (bytes32 recordFieldName) external\n    onlyPermittedContractOrOwner\n  {\n    delete StringDataStore[recordFieldName];\n  }\n\n  // DB Utilities\n\n  function addPermittedContract (address contractAddress) external\n  onlyOwner {\n    permissionStatusForContract[contractAddress] = true;\n    permittedContractsAddresses.push(contractAddress);\n  }\n\n  function addPermittedContracts (address[] addresses) external\n  onlyOwner {\n    for (uint i = 0; i < addresses.length; i++) {\n      permissionStatusForContract[addresses[i]] = true;\n      permittedContractsAddresses.push(addresses[i]);\n    }\n  }\n\n  function removePermittedContract (address addresses) external\n  onlyOwner {\n    permissionStatusForContract[addresses] = false;\n  }\n\n  function removePermittedContracts (address[] addresses) external\n  onlyOwner {\n    for (uint i = 0; i < addresses.length; i++) {\n      permissionStatusForContract[addresses[i]] = false;\n    }\n  }\n\n  function permittedContractsCount () public view returns (uint count) {\n    for (uint i = 0; i < permittedContractsAddresses.length; i++) {\n      if (permissionStatusForContract[permittedContractsAddresses[i]]) {\n        count++;\n      }\n    }\n\n    return count;\n  }\n\n  function getPermittedContracts () external constant returns (address[] addresses) {\n    addresses = new address[](permittedContractsCount());\n    for (uint i = 0; i < permittedContractsAddresses.length; i++) {\n      if (permissionStatusForContract[permittedContractsAddresses[i]]) {\n        addresses[i] = permittedContractsAddresses[i];\n      }\n    }\n\n    return addresses;\n  }\n\n  // Fetch Data\n  function getObjectData (bytes32[] recordFieldNames, uint8[] recordFieldTypes)\n    external view returns\n  (\n    uint[] items,\n    string strings\n  )\n  {\n    uint countOfIntegerTypes = getCountOfIntegerTypes(recordFieldTypes);\n    /*\n      objectsCount gives the number of entities we're basing the search on. Search may be needed for several entities for which recordFieldTypes[] is the same for all of them. E.g. get the name, email, gender, and state of 5 people:\n      recordFieldNames: [\n        keccak256(\"user/name\", \"0x9838cdba...\"), keccak256(\"user/email\", \"0x9838cdba...\"), keccak256(\"user/gender\", \"0x9838cdba...\"), keccak256(\"user/state\", \"0x9838cdba...\"),\n\n        keccak256(\"user/name\", \"0xabc63533...\"), keccak256(\"user/email\", \"0xabc63533...\"), keccak256(\"user/gender\", \"0xabc63533...\"), keccak256(\"user/state\", \"0xabc63533...\"),\n\n        keccak256(\"user/name\", \"0x08253befd...\"), keccak256(\"user/email\", \"0x08253befd...\"), keccak256(\"user/gender\", \"0x08253befd...\"), keccak256(\"user/state\", \"0x08253befd...\"),\n\n        keccak256(\"user/name\", \"0x0b6354a...\"), keccak256(\"user/email\", \"0x0b6354a...\"), keccak256(\"user/gender\", \"0x0b6354a...\"), keccak256(\"user/state\", \"0x0b6354a...\"),\n\n        keccak256(\"user/name\", \"0x07352bac36...\"), keccak256(\"user/email\", \"0x07352bac36...\"), keccak256(\"user/gender\", \"0x07352bac36...\"), keccak256(\"user/state\", \"0x07352bac36...\")\n\n      ],\n      recordFieldTypes: [7, 7, 5, 3]\n      In this case, recordFieldNames.length = 20, recordFieldTypes.length = 4 => objectsCount = 5 [the search is being done for 5 entities]\n    */\n    uint objectsCount = recordFieldNames.length / recordFieldTypes.length;\n    items = new uint[](objectsCount * countOfIntegerTypes);\n    uint k;\n    for (uint i = 0; i < objectsCount; i++) {\n      for (uint j = 0; j < recordFieldTypes.length; j++) {\n        uint r_i = (i * recordFieldTypes.length) + j;\n        if (recordFieldTypes[j] == 7) {\n          strings = strings.toSlice().concat(getStringValue(recordFieldNames[r_i]).toSlice());\n          strings = strings.toSlice().concat(\"666--ETH-VUE--666\".toSlice());\n        } else {\n          items[k] = getCorrespondingIntegerValue(recordFieldNames[r_i], recordFieldTypes[j]);\n          k++;\n        }\n      }\n      strings = strings.toSlice().concat(\"666--ETH-VUE-LIST--666\".toSlice());\n    }\n\n    return (items, strings);\n  }\n\n  function getCountOfIntegerTypes (uint8[] recordFieldTypes) public pure returns (uint count) {\n    count = 0;\n    for (uint i = 0; i < recordFieldTypes.length ; i++) {\n      if (recordFieldTypes[i] != 7) { // recordFieldType 7 is for strings\n        count += 1;\n      }\n    }\n\n    return count;\n  }\n\n  function getCorrespondingIntegerValue (bytes32 recordFieldName, uint8 uintType) public view returns (uint) {\n    // recordFieldTypes: 1 => bool, 2 => uint8, 3 => uint, 4 => address, 5 => bytes32, 7 => string\n    if (uintType == 1) {\n      return boolToUInt(getBoolValue(recordFieldName));\n    } else if (uintType == 2) {\n      return uint(getUInt8Value(recordFieldName));\n    } else if (uintType == 3) {\n      return getUIntValue(recordFieldName);\n    } else if (uintType == 4) {\n      return uint(bytes32(getAddressValue(recordFieldName)));\n    } else if (uintType == 5) {\n      return uint(getBytes32Value(recordFieldName));\n    } else {\n      return 0;\n    }\n  }\n\n  function boolToUInt (bool logicEntry) public pure returns (uint) {\n    if (logicEntry) {\n      return 1;\n    } else {\n      return 0;\n    }\n  }\n}\n",
  "sourcePath": "/Users/thomasmoran/ROOT_FOLDER/Development_2018/Git_repositories/Crypto/EthereumDevMeetup5/contracts/DB.sol",
  "compiler": {
    "name": "solc",
    "version": "0.4.18+commit.9cf6e910.Emscripten.clang"
  },
  "schemaVersion": "1.0.1",
  "updatedAt": "2019-02-14T20:49:05.791Z"
}